:020000040800F2
:10000000680D0020A901000841660008114600089B
:10001000B5010008B7010008B901000800000000A0
:100020000000000000000000000000006D690008F2
:10003000E11200080000000005670008CD69000813
:10004000C3010008C3010008C301000831680008AB
:10005000C3010008C3010008C3010008C301000870
:10006000C3010008C301000801130008C301000810
:10007000C3010008C3010008C3010008C301000850
:10008000C3010008C3010008C3010008000000000C
:10009000000000000000000000000000C301000894
:1000A000C3010008C3010008C3010008C301000820
:1000B000C3010008C3010008C3010008C301000810
:1000C000C3010008C3010008C3010008C301000800
:1000D000C3010008C3010008C301000800000000BC
:1000E000ED120008C3010008C30100080000000071
:1000F000000000000000000000000000C301000834
:1001000000000000C3010008C3010008C30100088B
:1001100000000000000000000000000000000000DF
:10012000C3010008C3010008C3010008C30100089F
:10013000C3010008000000000000000000000000F3
:10014000000000000000000000000000C3010008E3
:10015000C3010008C3010008C3010008C30100086F
:10016000C3010008C30100080000000000000000F7
:10017000000000000000000000000000000000007F
:1001800000000000C30100080000000000000000A3
:10019000C3010008DFF80CD000F0B4FB00480047B2
:1001A000419C0008680D002006488047064800472B
:1001B000FEE7FEE7FEE7FEE7FEE7FEE7FEE7FEE717
:1001C000FEE7FEE7356A00089501000810B540EA31
:1001D00001040346A40703D009E010C9121F10C38D
:1001E000042AFAD203E011F8014B03F8014B521E26
:1001F000F9D210BD10B50346C9B201E003F8011BE6
:10020000521EFBD210BD421C10F8011B0029FBD16D
:10021000801A704770B5064606F0B4FF04680546BC
:100220000A220021304600F0A1F92C6070BD2DE9B2
:10023000FE4F81EA030404F0004421F000410094E1
:100240004FF0000B23F0004350EA01045ED052EA65
:1002500003045BD0C3F30A54C1F30A552C44A4F23F
:10026000F3340194A0FB0254C1F3130141F4801153
:10027000C3F3130343F4801301FB024400FB034E5A
:10028000840A970A44EA815447EA8357A4FB076823
:1002900002958D0A05FB07854FEA932C04FB0C544D
:1002A0002705029D4FEA065847EA1637B5EB0805C1
:1002B0006EEB070C870E920E47EA811742EA831213
:1002C000A7FB0201B6EB0B0164EB00042B0D43EA24
:1002D0000C335E1844EB1C50DA465146E7FB020132
:1002E000C5F313044FEA0B3343EA14534FEA0432C5
:1002F000019C43EA0603A4F10C040294009CCDE99E
:1003000000B400F0B1F903B0BDE8F08F0020014661
:10031000F9E72DE9F04D81EA030404F0004B21F0E8
:10032000004514464FF0000A23F0004150EA050250
:1003300020D054EA01021DD0C5F30A570246C5F386
:100340001303C1F31300C1F30A5640F4801543F4BC
:100350008013A7EB0608101BD64608F2FD3873EB96
:10036000050002D308F1010801E092185B41B8F1E1
:10037000000F03DA00200146BDE8F08D00204FF4A5
:100380008011064684460EE0171B73EB050705D364
:10039000121B63EB050306434CEA010C49084FEAC4
:1003A000300092185B4150EA0107EDD152EA030098
:1003B00012D082EA040083EA0501084305D0101B2D
:1003C000AB4106D20122002306E000224FF0004399
:1003D00002E06FF0010253101AEB06004CEB0851DB
:1003E00010EB0A0041EB0B01BDE8F04D00F02DB918
:1003F00070B5C1F30A5201F000450024C1F31301A6
:1004000040F2FF3341F480119A4201DA002070BDBE
:1004100040F233439A42A2F2334203DC524200F0EC
:1004200095F800E090402C43F1D0404270BDC1F3FC
:100430000A5210B5C1F3130140F2FF3341F48011A9
:100440009A4201DA002010BD40F233439A42A2F2F0
:10045000334203DC524200F079F810BD904010BDE9
:1004600000F0004230F000400AD0C10D01F560718B
:10047000C0F3160042EA0151C20840071143704719
:1004800000200146704701F0004330B421F00041E4
:1004900050EA010206D00A0DA2F56072C1F3130101
:1004A000002A02DC30BC00207047440F44EAC1043B
:1004B000C100E01830BC00EBC25000F08FB830B57E
:1004C0000B46014600202022012409E021FA02F512
:1004D0009D4205D303FA02F5491B04FA02F52844AC
:1004E000151EA2F10102F1DC30BD2DE9F05F0546D9
:1004F000002092469B4688460646814640241BE0E3
:10050000284641464746224600F020F853465A46C0
:10051000C01A914110D311461846224600F004FA41
:100520002D1A67EB01084F4622460120002100F0FA
:10053000FBF917EB00094E41201EA4F10104DFDC9A
:10054000484631462A464346BDE8F09F202A04DB50
:10055000203A21FA02F00021704721FA02F3D0403C
:10056000C2F1200291400843194670472DE9F04737
:1005700091460F4680460446002614F8015B2DB1D3
:1005800000F0F4F90068405DC007F6D12B2D02D0D1
:100590002D2D18D0641E4A463946204600F0EAF94F
:1005A00027B13968A14201D1C7F8008071054FF029
:1005B00002040BD54042002803DD06F0E3FD046091
:1005C000A007BDE8F08746F48066E4E70028F8DA83
:1005D00006F0D8FD04606FF00040F2E70029A8BFE4
:1005E0007047401C490008BF20F00100704710B45C
:1005F000B0FA80FC00FA0CF050EA010404BF10BC11
:10060000704749B1CCF1200421FA04F411FA0CF13D
:1006100018BF012121430843A3EB0C01CB1D4FEA76
:1006200000614FEA102042BF002010BC704700EB71
:10063000C35010440029A4BF10BC7047401C49009F
:1006400008BF20F0010010BC704710B5141E73F1F4
:10065000000408DA401C41F1000192185B411A4382
:1006600001D120F0010010BD2DE9F04D92469B46CE
:1006700011B1B1FA81F202E0B0FA80F22032904674
:1006800000F052F904460F4640EA0A0041EA0B0125
:1006900053465A46084313D0114653EA010019D075
:1006A000C8F140025046FFF751FF05460E4650463E
:1006B0005946424600F038F9084305D0012004E0CD
:1006C00020463946BDE8F08D0020054346EAE07635
:1006D0002C4337430A986305E40AA0EB0800002284
:1006E000FD0A44EA47540A3002D500200146E9E7F2
:1006F000010510196941DDE9084500196941BDE8A6
:10070000F04DA2E72DE9FE4F804681EA0300C00FBD
:100710000C46009021F0004123F00045B8EB0200A8
:10072000A94105D24046214690461C460B4602464A
:1007300023F00040104347D0270DC7F30A00C3F34E
:100740000A510290401A019040286BDAC3F313005B
:1007500040F4801B0098924620B10023D2EB030A9C
:1007600063EB0B0B01985946C0F14002504600F074
:10077000DBF806460D4650465946019A00F0E3F86C
:1007800010EB08006141002487EA115284EAE77304
:100790001A4340D0009A62B3019A012A4FEA0752E5
:1007A00015DC001B61EB02014FF0004202EA075228
:1007B000CDE90042001C41F5801132462B46FFF77F
:1007C00053FF03B0BDE8F08F40462146F9E7001B18
:1007D00061EB0201001C41F5801300185B412018F9
:1007E000A2F5001747EB030140EAD570B6196D4139
:1007F00011E06D084FEA360645EAC0754FEA075228
:10080000001B61EB0201001C41F5801149084FEA11
:1008100030000019514132462B4603B0BDE8F04F7D
:10082000FFF713BF0098012240000023D0EB020223
:1008300063EBE073009821464FEAE074B8EB0000E8
:1008400061EB0401E9E783F000435BE781F00041DD
:1008500058E770B521F0004303430CD0C1F30A55AB
:100860000024D5EB040564EB0403D617AD1AB3419D
:1008700002DB0020014670BD201841EB025170BD23
:100880000EB5C10F80EAE0700844CA07002140F2AB
:1008900033438DE80E000A460B46FFF7E5FE03B032
:1008A00000BDC1F30A52C1F3130140F2FF3341F41A
:1008B00080119A4202DA00200146704740F2334329
:1008C0009A42A2F2334202DC5242FFF73FBE00F0EE
:1008D0002BB8000030B5041E71F1000404DB4FF0AA
:1008E0000044404264EB0101141E73F1000405DB77
:1008F0001C464FF00043524263EB0403994208BF89
:10090000904230BD064C074D06E0E06840F0010320
:1009100094E8070098471034AC42F6D3FFF73EFC4A
:10092000FCA200081CA30008202A04DB203A00FADD
:1009300002F1002070479140C2F1200320FA03F336
:10094000194390407047202A06DBCB17203A41FA22
:1009500002F043EAE07306E041FA02F3D040C2F14C
:100960002002914008431946704700000048704734
:100970009CA200082DE9F05F82460078002715460A
:100980008B460AF10104B946302801D09DB113E02D
:1009900014F8010B0127782803D0582801D045B15D
:1009A0000AE00DB1102D07D10027102514F8010B16
:1009B00002E0082500E00A250026B0460EE005FB0F
:1009C000080005FB06F1012701EB10461FFA80F82D
:1009D000B6F5803F00D3B94614F8010B294600F064
:1009E00069F80028EBDABBF1000F05D00FB1641EE7
:1009F00000E05446CBF80040B9F1000F06D006F0F5
:100A0000C1FB02210160C81EBDE8F09F48EA064014
:100A1000FAE72DE9F04D00231A461B1A8A4103DB41
:100A200000200146BDE8F08DC1F30A52C1F3130165
:100A300041F480154FF0000BD10702D100186D4131
:100A4000521E0027044640F2FF11384601EB620AAD
:100A50003E468046024600204FF48011FFF776FDA7
:100A6000C2197141BB1846EB0100B4EB030C75EBE6
:100A7000000C04D3E41A65EB000517460E46241952
:100A800008F101006D4180463428E3DDF91946EB99
:100A90000600091BA84103D24FF0FF32134601E0C4
:100AA000002213461BEB070046EB0A51BDE8F04D50
:100AB000FFF7CBBD3A2800D2303820F02002412A7F
:100AC00001D3A2F13700884201D34FF0FF307047C5
:100AD00070B58C1810F8015B15F0070301D110F800
:100AE000013B2A1106D110F8012B03E010F8016B2D
:100AF00001F8016B5B1EF9D12B0705D40023521EB0
:100B00000DD401F8013BFAE710F8013BCB1A921C17
:100B100003E013F8015B01F8015B521EF9D5A14215
:100B2000D8D3002070BD000010B59AB041A30FCB00
:100B300016AC0FC443A090E80E00C06812AC0EC4FF
:100B4000159044A30FCB0EAC0FC446A3D3E90121EB
:100B50001868DB68CDE90C13CDE90A0245A3D3E997
:100B600001021968DB6807AC0DC4069145480B23E8
:100B7000012216A90090022008F068F9044604B189
:100B800055E0414801211022CDE90212CDE90410BF
:100B900000200821142312AACDE9001002213948AF
:100BA000008808F0E3F8044604B140E0374801212A
:100BB00010220023CDE90232CDE904100421CDE951
:100BC000001314230AAA02212E48008808F0CEF848
:100BD000044604B12BE02E48012110220023CDE968
:100BE0000232CDE904101221CDE9001314230EAA1C
:100BF00002212448008808F0B9F8044604B116E040
:100C00002448012110220023CDE90232CDE900233E
:100C1000CDE90410142306AA02211A48008808F01E
:100C2000A5F8044604B102E000201AB010BD472028
:100C3000FBE700008CF997A6EE94E3BCF821B260C4
:100C4000008000008CF997A6EE94E3BCF821B26016
:100C5000018000008CF997A6EE94E3BCF821B26005
:100C6000028000008CF997A6EE94E3BCF821B260F4
:100C7000038000008CF997A6EE94E3BCF821B260E3
:100C800004800000CE000020D0000020D200002010
:100C9000D4000020D600002010B50D480D49086092
:100CA0004FF48270486000210A488160C160016190
:100CB00041614FF4007181610021016241620721AD
:100CC000C1620021C161816202F0C1F910BD000062
:100CD000003001403C0800200EB5002002901F4863
:100CE0000078002837D11E481E49086003208DF87F
:100CF000050008460068006818B900200860012057
:100D00000EBD1848006801686846884720B1002079
:100D1000144908600120F3E712480068806820B990
:100D20000020104908600120EAE70E480068816849
:100D300002A8884720B100200A4908600120DFE7A7
:100D40009DF80800BC2806D1074806490968C86212
:100D50000120024908700020D2E700004C02002068
:100D600000010020480200203001002001480078E6
:100D7000704700004C02002010B588B000200190A0
:100D8000002401203E4908703E480078002874D1B4
:100D900000BF3B48007801286CD13B483B490860C4
:100DA0009FED3B0A8DED030A9FED3A0A8DED020A95
:100DB00001208DF810008DF811008DF81200B0EEB2
:100DC000000A8DED060A9FED330A8DED050A8DF8B8
:100DD0001C008DF81D008DF81E0008460068006894
:100DE00038B90020086026480078401E2449087061
:100DF00040E026480068016802A8884740B100200A
:100E0000224908601E480078401E1D49087031E0E4
:100E10001E480068406840B900201C490860184816
:100E20000078401E1649087024E0184800684168A0
:100E300001A8884740B10020144908601048007894
:100E4000401E0F49087015E09DF80400692808D17C
:100E500011480E490968086401200A4908700124F4
:100E600008E000200949086005480078401E044950
:100E7000087000BF00BF002C8BD0002008B010BD50
:100E80005502002054020020D00100205002002012
:100E90000000FA440000D0422002002001480078FF
:100EA000704700005402002010B586B0044600BF11
:100EB0006CB900BF1348006840F002001149086097
:100EC0000846006800F00200009000BF00BF00BFAD
:100ED0000D4830F814000190012002900390022088
:100EE00004900A4951F8240001A900F0F7FA064AD3
:100EF00032F81410054A52F82400002200F0E2FBF8
:100F000006B010BD30380240E4A0000860020020A6
:100F100010B50446044A32F81410044A52F824006A
:100F2000012200F0CFFB10BDE4A000086002002009
:100F300010B50446044A32F81410044A52F824004A
:100F4000002200F0BFFB10BDE4A0000860020020FA
:100F500010B50446044A32F81410044A52F824002A
:100F600000F0ACFB10BD0000E4A00008600200200F
:100F70003EB50020029000245E48007800287DD114
:100F800000BF5D480078002863D0012860D15B482D
:100F90005B49086010208DF8000000208DF80400E7
:100FA00008208DF8030001208DF805008DF8010060
:100FB00004208DF8020008460068006838B9002057
:100FC00008604D480078401E4B4908708CE04C4842
:100FD000006801686846884740B1002048490860B9
:100FE00045480078401E444908707DE04448006848
:100FF000806840B90020424908603F480078401EA0
:101000003D49087070E03E480068816802A8884742
:1010100040B100203A49086037480078401E364900
:10102000087061E09DF80800BD2808D135483449B2
:101030000968086301202F490870012454E000204A
:101040002F4908602C480078401E2B4908704BE05F
:1010500000BF2D482A49086010208DF800000020AC
:101060008DF8040008208DF8030001208DF805009C
:101070008DF8010004208DF8020000E038E00846F9
:101080000068006818B90020086001203EBD1C48B7
:10109000006801686846884720B100201849086048
:1010A0000120F3E716480068806820B90020144941
:1010B00008600120EAE712480068816802A88847B2
:1010C00020B100200E4908600120DFE79DF80800EC
:1010D000BD2808D10D480A4909680863012005495F
:1010E0000870012400E000BF00BF002C3FF449AFAE
:1010F0000020CBE75C0200205D0200209001002070
:1011000058020020C401002050010020840100206A
:1011100001480078704700005C02002010B51021E3
:10112000034800F0C3FA012800D110BD0020FCE7FD
:101130000008024010B500220221074800F0C2FA60
:10114000052000F00DF901220221034800F0BAFA4F
:10115000052000F005F910BD000402402DE9F04122
:1011600088B080460F4616460025FF20079022A132
:1011700003C9CDE9040100221021214800F0A2FAA0
:101180000F20052302AA04A90090404602F07CF833
:101190009DF8080002281BD19DF80B009DF80C104B
:1011A00040EA0124002C13DDB44200DD3446002562
:1011B0000CE00F20012306AA07A90090404602F088
:1011C00063F89DF818007855681CC5B2A542F0DB9D
:1011D000012210210A4800F075FA0020019003E076
:1011E00000BF0198401C019001980228F8DB2846B6
:1011F00008B0BDE8F08100000B0000000000000016
:10120000000002402DE9F047C6B0804689461646E8
:101210001C464E9D4FF0000A0027012726A103C956
:101220004591449026A103C94391429000F059F89A
:101230001FB108F0E3FE08F03CFF00221021224815
:1012400000F040FA0F20052342AA44A9009040462E
:1012500002F01AF80FB108F0B5FE9DF80801022857
:101260001CD19DF809016119884214DB002C07DDAF
:101270000F20234602AA49460090404602F004F897
:10128000002D0DDD0F202B4602AA3146009040466E
:1012900001F0FAFF04E06FF0010A01E04FF0FF3ABD
:1012A00001221021084800F00DFA00F02EF85046F7
:1012B00046B0BDE8F08700000A0000000000000012
:1012C000AA000000000000000000024010200149B8
:1012D00008607047143C014010B500F0F9F910BDEA
:1012E000704710B50A2000F079FE10BD10B502203D
:1012F00000F0E6F801200149087010BDFC00002054
:1013000010B5102000F0DCF810BD10B50A2000F078
:1013100073FE10BD06E00020FFF71AFE4FF47A704E
:1013200000F01EF8F7E770477047704710B50348A4
:1013300000F0EEFD05F0CCF810BD00001003002019
:1013400070B50546284605F013FB0446691CC8B273
:1013500005F00EFB0646200204B23443204670BD61
:1013600031B5002400F0B4F9044600BF00F0B0F934
:10137000001B00998842F9D338BD0000F0B50C4637
:10138000002500220023002181E0012606FA01F554
:1013900004EA0502AA4279D106684FEA410C032704
:1013A00007FA0CF7BE430660CF0800F1200656F896
:1013B00027604F074FEAD76C0F2707FA0CF7BE4399
:1013C0004FEAD10C00F1200747F82C6086684FEAFD
:1013D000410C032707FA0CF7BE43866047680126D5
:1013E0008E40B7434760C6684FEA410C032707FAAF
:1013F0000CF7BE43C660284E8F0856F827308E077C
:10140000370F0F26BE403340244EB04201D1002694
:1014100014E0234EB04201D101260FE0214EB0422C
:1014200001D102260AE0204EB04201D1032605E098
:101430001E4EB04201D1042600E005268F073F0F63
:10144000BE409E4222D18E07370F0F2606FA07F3C1
:10145000114E8F0856F827609E430F4F4FEA910CAC
:1014600047F82C60124E36689643114F3E603E1D81
:10147000366896433F1D3E603E1D366896433F1DCD
:101480003E603E1D366896433F1D3E60491C102954
:10149000FFF47BAFF0BD00000838014000000240BF
:1014A0000004024000080240000C0240001002400C
:1014B000003C014010B5044602F074FC10BD000071
:1014C00010B5044604480068204020B1024804607A
:1014D0002046FFF7EFFF10BD143C0140F8B503466E
:1014E0000A460025002400200021CBE0012606FA50
:1014F00001F5166806EA0504AC4271D15668022E61
:1015000002D05668122E13D1CF0803F1200656F8E8
:1015100027004E07F70E0F26BE40B0434F07FF0EC1
:101520001669BE403043CF0803F1200646F8270075
:1015300018684F000326BE40B043167906F0030634
:101540004F00BE40304318605668012E08D05668E0
:10155000022E05D05668112E02D05668122E13D1D5
:1015600098684F000326BE40B0434F00D668BE4087
:1015700030439860586801268E40B0431679C6F310
:1015800000168E4030435860D8684F000326BE4096
:10159000B0434F009668BE403043D860566806F0AE
:1015A0008056B6F1805F6CD100BF384E366846F485
:1015B0008046364F3E603E46366806F480460096CA
:1015C00000BF00BF324E8F0856F827008E07370F36
:1015D0000F26BE40B0432F4EB34202D1002615E085
:1015E0004FE02D4EB34201D101260FE02B4EB34206
:1015F00001D102260AE02A4EB34201D1032605E0BA
:10160000284EB34201D1042600E005268F073F0F84
:10161000BE4030431E4E8F0846F82700224E3068E9
:10162000A043566806F48036B6F5803F00D12043CB
:101630001D4E3060361D3068A043566806F40036F3
:10164000B6F5003F00D12043174E361D3060361DE1
:101650003068A043566806F48016B6F5801F00D1A6
:101660002043114E08363060361D3068A04356685E
:1016700006F40016B6F5001F00D120430A4E0C36C2
:101680003060491C1029FFF431AFF8BD44380240E6
:1016900008380140000002400004024000080240F7
:1016A000000C024000100240003C01400246136959
:1016B0000B400BB1012000E00020704742694A4016
:1016C000426170470AB1816101E00B048361704798
:1016D00001480068704700002802002010B5044649
:1016E0000CB9012010BD022084F835002068006884
:1016F00020F0010021680860204600F0F1FB002086
:10170000A06384F8350000BF84F8340000BF00BF38
:10171000E8E7014691F835007047000070B50446CF
:10172000002600250CB9012070BD94F8350028B9B9
:10173000002084F83400204600F0EAFB022084F800
:1017400035002068006820F001002168086000F082
:10175000FBFE05463748B5FBF0F620684660364983
:101760006068884201D8701C07E04FF4967070439F
:101770004FF47A71B0FBF1F0401C216808622E49E9
:10178000606888420ED860684000B5FBF0F0C0F396
:101790000B00042801D204202DE060684000B5FB56
:1017A000F0F028E0A06828B9606800EB4000B5FBC5
:1017B000F0F008E0606800EBC00101EB0010B5FB41
:1017C000F0F040F48040C0F30B0008B9012012E0B3
:1017D000A06828B9606800EB4000B5FBF0F008E0B5
:1017E000606800EBC00101EB0010B5FBF0F040F4C5
:1017F000804040F400402168C861D4E907010843F3
:1018000021680860D4E90310084321688860D4E99E
:10181000050108432168C8602068006840F00100A5
:10182000216808600020A063012084F835000020B2
:101830007AE7000040420F00A08601002DE9F8433E
:101840000446884615461E46089F94F83500012830
:1018500071D105B116B90120BDE8F883206880690F
:10186000C0F3400008B10220F6E700BF94F834004E
:10187000012801D10220EFE7012084F8340000BFE5
:10188000222084F835000020A0633A4641462046D5
:1018900002F07EFF80B1A06B042806D100BF0020BB
:1018A00084F8340000BF0120D6E700BF002084F890
:1018B000340000BF0320CFE7012E15D12068006857
:1018C00020F480602168086000BF206840690090B3
:1018D00020688069009000BF00BF2068006840F465
:1018E00000702168086025E0022E14D1206800688D
:1018F00020F48060216808602068006840F400607F
:101900002168086000BF20684069009020688069F5
:10191000009000BF0EE02068006840F480602168FD
:10192000086000BF206840690090206880690090CE
:1019300000BF00BF80E09AE0032E63DC012E0FD1D0
:101940003B4600224B49204603F0C6F808B103206D
:1019500082E72068006905F8010B701E86B26BE013
:10196000022E1CD13B46002242493C39204603F05E
:10197000B3F808B103206FE72068006840F40070F6
:10198000216808602068006905F8010B701E86B2A6
:101990002068006905F8010B701E86B24CE03B46DA
:1019A000002234493C39204603F096F808B1032060
:1019B00052E72068006820F4806021680860206891
:1019C000006905F8010B701E86B23B4600222949CA
:1019D0003C39204603F080F808B103203CE720683A
:1019E000006840F40070216808602068006905F80C
:1019F000010B701E86B22068006905F8010B701E8D
:101A000086B219E03B4600221A49204603F064F8EA
:101A100008B1032020E72068006905F8010B701E5B
:101A200086B220684069C0F3800028B12068006950
:101A300005F8010B701E86B2002E3FF77DAF2068BF
:101A4000006820F40060216808603B4601220A49D2
:101A5000204603F041F808B10320FDE6012084F898
:101A6000350000BF002084F8340000BFF4E60220F7
:101A7000F2E6000040000100020010002DE9F843EA
:101A80000446884615461E46089F94F835000128EE
:101A90007BD105B116B90120BDE8F88320688069C3
:101AA000C0F3400008B10220F6E700BF94F834000C
:101AB000012801D10220EFE7012084F8340000BFA3
:101AC000122084F835000020A0633A4641462046A3
:101AD00002F0DAFE80B1A06B042806D100BF00201E
:101AE00084F8340000BF0120D6E700BF002084F84E
:101AF000340000BF0320CFE700BF2068406900909A
:101B000020688069009000BF00BF1AE03B460022B9
:101B10001F49204602F0E0FF08B10320BCE715F89A
:101B2000010B21680861701E86B220684069C0F30D
:101B3000800030B12EB115F8010B21680861701ECC
:101B400086B2002EE2DC3B4600221149204602F01C
:101B5000C3FF08B103209FE72068006840F40070CD
:101B6000216808603B4601220A49204602F0B4FF82
:101B700010B1032090E708E0012084F8350000BF91
:101B8000002084F8340000BF86E7022084E70000CC
:101B900080000100020010002DE9F84F044688463D
:101BA00091469A460AADE0CD94F8350001287AD1E5
:101BB00005B116B90120BDE8F88F20688069C0F32F
:101BC000400008B10220F6E700BF94F83400012875
:101BD00001D10220EFE7012084F8340000BF422049
:101BE00084F835000020A06353464A46414620460B
:101BF000009702F08FFE80B1A06B042806D100BFD1
:101C0000002084F8340000BF0120D4E700BF00208A
:101C100084F8340000BF0320CDE7012E15D12068E1
:101C2000006820F480602168086000BF2068406977
:101C3000009020688069009000BF00BF20680068A5
:101C400040F40070216808601FE0022E14D1206863
:101C5000006820F48060216808602068006840F413
:101C600000602168086000BF20684069009020681B
:101C70008069009000BF08E000BF206840690090C4
:101C800020688069009000BF00BF80E0032E64DC04
:101C9000012E10D13B4600224B49204602F01CFF8A
:101CA00010B1032087E78DE02068006905F8010B7B
:101CB000701E86B26BE0022E1CD13B4600224249C8
:101CC0003C39204602F008FF08B1032073E7206882
:101CD000006840F40070216808602068006905F819
:101CE000010B701E86B22068006905F8010B701E9A
:101CF00086B24CE03B46002233493C39204602F094
:101D0000EBFE08B1032056E72068006820F48060ED
:101D1000216808602068006905F8010B701E86B212
:101D20003B46002228493C39204602F0D5FE08B146
:101D3000032040E72068006840F4007021680860D4
:101D40002068006905F8010B701E86B220680069E2
:101D500005F8010B701E86B219E03B4600221A49B5
:101D6000204602F0B9FE08B1032024E7206800698C
:101D700005F8010B701E86B220684069C0F3800030
:101D800028B12068006905F8010B701E86B2002E8C
:101D90003FF77CAF2068006820F40060216808608D
:101DA0003B4601220949204602F096FE08B1032075
:101DB00001E7012084F8350000BF002084F83400DA
:101DC00000BFF8E60220F6E6400001000200100025
:101DD0002DE9F84F0446884691469A460AADE0CD73
:101DE00094F83500012874D105B116B90120BDE879
:101DF000F88F20688069C0F3400008B10220F6E740
:101E000000BF94F83400012801D10220EFE701203F
:101E100084F8340000BF322084F835000020A0632D
:101E200053464A4641462046009702F0FDFD80B1E8
:101E3000A06B042806D100BF002084F8340000BF46
:101E40000120D4E700BF002084F8340000BF032045
:101E5000CDE71AE03B4600221F49204602F03CFE37
:101E600008B10320C3E715F8010B21680861701E53
:101E700086B220684069C0F3800030B12EB115F8F9
:101E8000010B21680861701E86B2002EE2DC3B4621
:101E900000221149204602F01FFE08B10320A6E7E8
:101EA0002068006840F40070216808603B46012209
:101EB0000A49204602F010FE08B1032097E70120EE
:101EC00084F8350000BF002084F8340000BF8EE79E
:101ED000FFE702208BE700008000010002001000F5
:101EE00010B5044607492068884209D106480068B1
:101EF00020F4001004490860C0210448FFF73EFAAE
:101F000010BD000000540040403802400004024070
:101F100010B586B004461149206888421BD1C02004
:101F200001901220029001200390032004900420CD
:101F3000059001A90A48FFF7D1FA00BF09480068D7
:101F400040F40010074908600846006800F40010DB
:101F5000009000BF00BF06B010BD0000005400405C
:101F6000000402404038024002480068401C014919
:101F7000086070472802002010B50D48006840F442
:101F800000700B4908600846006840F480600860F3
:101F90000846006840F480700860032000F078F87C
:101FA0000F2000F007F800F017F8002010BD000027
:101FB000003C024070B5044600F0AAFA4FF47A7172
:101FC000B0FBF1F5284601F009FB00222146501E26
:101FD00000F01FF8002070BD7047000000BF00F047
:101FE0001F0201219140034A430942F8231000BF18
:101FF0007047000080E100E000BF00F01F020121F7
:1020000091404209920002F1E022C2F8001100BFA3
:1020100070472DE9F05F80460D461646002704F014
:1020200011FB074639462A46334601F00700C0F146
:10203000070ABAF1040F02D94FF0040A01E0C0F117
:10204000070AD14600F1040ABAF1070F02D24FF095
:10205000000A01E0A0F1030AD4464FF0010A0AFA8F
:1020600009FAAAF1010A0AEA020A0AFA0CFA4FF07E
:10207000010B0BFA0CFBABF1010B0BEA030B4AEA69
:102080000B042146404604F0E5FABDE8F09F00004D
:1020900000BF00F00702064B19684FF6FF03194016
:1020A000044B0B4343EA0221014B196000BF704708
:1020B0000CED00E00000FA05F8B504460025002606
:1020C000207800F0010070B3002060498866FFF7B7
:1020D000FFFA054606E0FFF7FBFA401B642801D92A
:1020E0000320F8BD5A480068C0F3C0600028F2D150
:1020F00047F6C07191FAA1F1B1FA81F160688840A8
:102100004FF0E04292FAA2F2B2FA82F2A168914054
:1021100008434F498431086001204C498866FFF725
:10212000D7FA054607E00CE0FFF7D2FA401B642817
:1021300001D90320D5E746480068C0F3C0600028F5
:10214000F2D0207800F0020002287CD100BF404885
:102150004030006840F080503D49403108600846FA
:10216000006800F08050009000BF00BF3948006850
:1021700040F4807037490860FFF7AAFA054606E088
:10218000FFF7A6FA401B642801D90320A9E73148CC
:10219000006800F480700028F2D02D48703000688C
:1021A00000F44070A18901F4407188420CD02848A5
:1021B0007030006820F44076012027490860002034
:1021C0000860234870300660E068B0F5807F13D166
:1021D000FFF77EFA054608E0FFF77AFA401B41F266
:1021E0008831884201D903207BE7194870300068A4
:1021F000C0F340000028EFD000BFA08900F4407079
:10220000B0F5407F0CD112480830006820F4F81077
:10221000124AE168114008430D490831086007E09F
:102220000B480830006820F4F810094908310860AC
:10223000074870300068A189C1F30B0108430449C5
:102240007031086000BF00204BE7000000004742EB
:102250000038024000700040400E4742FFFCFF0F74
:1022600070B504460E460025A748006800F00F0030
:10227000B0426FD2A4490E700846006800F00F000B
:10228000B04201D0012070BD207800F00200022889
:1022900007D19E48006820F0F000A16808439B49E0
:1022A0000860207800F0010000283ED06068012816
:1022B00007D1964808380068C0F34040B8B90120FB
:1022C000E1E76068022802D06068032807D18F48E0
:1022D00008380068C0F3406048B90120D3E78B4854
:1022E00008380068C0F3400008B90120CBE78748F0
:1022F000006820F003006168084384490860FFF724
:10230000E7F905466068012810D108E0FFF7E0F919
:10231000401B41F28831884201D90320B3E77B4852
:10232000006800F00C000428F0D1CDE060680228BD
:1023300011D108E0FFF7CCF9401B41F28831884207
:1023400001D903209FE77148006800F00C000828BD
:10235000F0D1B9E024E06068032810D108E0FFF76D
:10236000B7F9401B41F28831884201D903208AE73E
:102370006648006800F00C000328F0D1A4E008E0F3
:10238000FFF7A6F9401B41F28831884201D90320AA
:1023900079E75E48006800F00C000028F0D193E077
:1023A000207800F00200022807D15848006820F089
:1023B000F000A168084355490860207800F001004A
:1023C000002877D06068012807D150480838006895
:1023D000C0F34040B8B9012055E76068022802D038
:1023E0006068032807D1494808380068C0F3406096
:1023F00048B9012047E7454808380068C0F3400065
:1024000008B901203FE74148006820F003006168F7
:1024100008433E490860FFF75BF9054660680128FC
:1024200010D108E0FFF754F9401B41F2883188428F
:1024300001D9032027E73548006800F00C00042884
:10244000F0D137E06068022810D108E0FFF740F9CA
:10245000401B41F28831884201D9032013E72B4801
:10246000006800F00C000828F0D123E06068032821
:1024700010D108E0FFF72CF9401B41F28831884267
:1024800001D90320FFE62148006800F00C00032872
:10249000F0D10FE008E0FFF71BF9401B41F2883153
:1024A000884201D90320EEE61848006800F00C00CD
:1024B0000028F0D114490E700846006800F00F00A3
:1024C000B04201D00120DEE6207800F004000428AC
:1024D00007D10E48006820F4E050E16808430B493A
:1024E0000860207800F00800082808D10748006834
:1024F00020F46040216940EAC100044908600F20CF
:10250000FFF758FD0020BEE6003C024008380240BC
:1025100010B500F045F80949096801F0F001F02212
:1025200092FAA2F2B2FA82F2D140054A515CC84056
:10253000044908600846006810BD000008380240E1
:10254000D4A000086C02002010B5FFF7E1FF074996
:10255000096801F4E0514FF4E05292FAA2F2B2FAA3
:1025600082F2D140024A515CC84010BD0838024096
:10257000D4A0000810B5FFF7CBFF0749096801F4A4
:1025800060414FF4604292FAA2F2B2FA82F2D14074
:10259000024A515CC84010BD08380240D4A000086F
:1025A00070B50021002200230020274C246804F08D
:1025B0000C0424B1042C04D0082C41D103E023489E
:1025C00040E022483EE0204C241F246804F03F01F4
:1025D0001D4C241F246804F4800484B11B4CB4FBFC
:1025E000F1F5194C241F246847F6C076344096FA5A
:1025F000A6F6B6FA86F6F44005FB04F20FE0134C9B
:10260000B4FBF1F5104C241F246847F6C076344023
:1026100096FAA6F6B6FA86F6F44005FB04F20A4CE2
:10262000241F246804F440344FF4403595FAA5F58E
:10263000B5FA85F5EC40641C6300B2FBF3F001E0F1
:10264000024800BF00BF70BD083802400024F400FB
:1026500038B504460025207800F00100002866D037
:10266000F648006800F00C0004280DD0F34800681C
:1026700000F00C00082813D1F048001F006800F497
:102680008000B0F5800F0BD1EC4808380068C0F32B
:10269000404000284BD06068002848D1012038BD58
:1026A0000020E649891F0870FFF712F8054608E088
:1026B000FFF70EF8401B41F28831884201D9032010
:1026C000EDE7DE4808380068C0F340400028EFD14D
:1026D0002079DA49891F08706068A0B1FEF7F8FF19
:1026E000054608E0FEF7F4FF401B41F288318842BE
:1026F00001D90320D3E7D14808380068C0F340402F
:102700000028EFD013E0FEF7E3FF054608E0FEF7F0
:10271000DFFF401B41F28831884201D90320BEE728
:10272000C64808380068C0F340400028EFD1207840
:1027300000F00200022869D1C048006800F00C00D7
:1027400058B1BE48006800F00C00082821D1BB48F1
:10275000001F006800F48000D8B9B8480838006845
:10276000C0F3400020B1E068012801D0012096E7C5
:10277000B2480838006820F0F800F82292FAA2F275
:10278000B2FA82F2216991400843AC4908390860E5
:102790003CE0E06828B30120A9490860FEF798FFF3
:1027A000054606E0FEF794FF401B642801D903208C
:1027B00075E7A24808380068C0F340000028F1D04F
:1027C0009E480838006820F0F800F82292FAA2F239
:1027D000B2FA82F2216991400843984908390860A9
:1027E00014E0002096490860FEF772FF054606E0F7
:1027F000FEF76EFF401B642801D903204FE78F4886
:1028000008380068C0F340000028F1D1207800F0BB
:10281000080008282CD16069A8B101208949086006
:10282000FEF756FF054606E0FEF752FF401B642800
:1028300001D9032033E781486C300068C0F34000C1
:102840000028F1D014E000207E490860FEF740FF28
:10285000054606E0FEF73CFF401B642801D9032033
:102860001DE776486C300068C0F340000028F1D1C5
:10287000207800F0040004286DD100BF6F48383084
:10288000006840F080506D493831086008460068A3
:1028900000F08050009000BF00BF6B48006840F41B
:1028A000807069490860FEF713FF054606E0FEF7F1
:1028B0000FFF401B642801D90320F0E6624800683E
:1028C00000F480700028F2D000205C496831087064
:1028D000FEF7FEFE054608E0FEF7FAFE401B41F259
:1028E0008831884201D90320D9E65448683000680D
:1028F000C0F340000028EFD1207A504968310870B9
:10290000A068A0B1FEF7E4FE054608E0FEF7E0FE91
:10291000401B41F28831884201D90320BFE6474875
:1029200068300068C0F340000028EFD013E0FEF7E5
:10293000CFFE054608E0FEF7CBFE401B41F2883192
:10294000884201D90320AAE63C4868300068C0F3F9
:1029500040000028EFD1A069F0B33848006800F0CB
:102960000C00082872D0A069022850D100203449F8
:102970000866FEF7ADFE054606E0FEF7A9FE401B21
:10298000642801D903208AE62C4808380068C0F37F
:1029900040600028F1D1D4E90701084347F6C0722E
:1029A00092FAA2F2B2FA82F2616A914008430122DD
:1029B000A16AC2EB51014FF4403292FAA2F2B2FA8C
:1029C00082F2914008434FF0706292FAA2F2B2FA9A
:1029D00082F2E16A914000E03AE008431749091F9A
:1029E0000860012016490866FEF772FE054606E0FB
:1029F000FEF76EFE401B642801D903204FE60F4806
:102A000008380068C0F340600028F1D020E00020C2
:102A10000B490866FEF75CFE054606E0FEF758FE29
:102A2000401B642801D9032039E6044808380068AF
:102A3000C0F340600028F1D10AE007E00838024006
:102A400000004742800E474200700040012026E609
:102A5000002024E670B50446002500BF207F012831
:102A600001D1022070BD0120207700BF02206077D5
:102A700000BFCA202168486253202168486200BF15
:102A80002068806820F48060216888602068806801
:102A900020F4804021688860FEF71AFE054612E0A7
:102AA000FEF716FE401BB0F57A7F0CD900BFFF2061
:102AB0002168486200BF0320607700BF00202077B4
:102AC00000BF0320CEE72068C068C0F38000002864
:102AD000E6D000BFFF202168486200BF0120607778
:102AE00000BF0020207700BF00BFBBE72DE9F04109
:102AF00004460D461646002700BF207F012802D15C
:102B00000220BDE8F0810120207700BF022060771D
:102B100000BFCA202168486253202168486200BF74
:102B20002068806820F4806021688860FEF7D0FD0E
:102B3000074612E0FEF7CCFDC01BB0F57A7F0CD93A
:102B400000BFFF202168486200BF0320607700BFFC
:102B50000020207700BF0320D3E72068C068C0F3BF
:102B600080000028E6D0206845612068806820F059
:102B70000700216888602068806830432168886089
:102B80001348006840F4800011490860104808307C
:102B9000006840F480000E490831086020688068B1
:102BA00040F48040216888602068806840F480603C
:102BB0002168886000BFFF202168486200BF0120B3
:102BC000607700BF0020207700BF00BF99E70000BA
:102BD000003C014002490968491C014A11607047E4
:102BE000A000002010B504462068C068C0F3802013
:102BF00078B12068806800F4804050B12046FFF72B
:102C0000E9FF2068C06800F0800060F490602168EF
:102C1000C8604FF48000024908600120607710BD51
:102C2000143C014070B505460B4616460024286842
:102C300040680E4900EA0104200CD870C4F3042057
:102C4000587004F03F009870C4F3423018705EB9B9
:102C5000D87803F058FDD870587803F054FD5870B8
:102C6000987803F050FD9870002070BD3FFFFF0082
:102C700070B505460B46164600242868806A5860E1
:102C8000286800680F4900EA0104C4F30540187081
:102C9000C4F30620587004F07F00987004F480009C
:102CA000000C18725EB9187803F02DFD1870587872
:102CB00003F029FD5870987803F025FD98700020E6
:102CC00070BD00007F7F7F0010B504460CB9012065
:102CD00010BD607F20B900202077204600F04EF81C
:102CE0000220607700BFCA20216848625320216813
:102CF000486200BF204603F07BFD40B100BFFF20CB
:102D00002168486200BF042060770120E0E7206866
:102D10008068194908402168886021696068084313
:102D200061690843216889680843216888602168CF
:102D3000E068086120680169208941EA0040216853
:102D400008612068C06820F080002168C8602068A1
:102D5000006C20F48020216808642068006CA16960
:102D600008432168086400BFFF202168486200BF53
:102D7000012060770020ABE7BFFF8FFF10B590B058
:102D800004460420049000200A900120069004A824
:102D9000FFF75EFC08B1FEF7BDFA02200090C0010B
:102DA00003906846FFF788F908B1FEF7B3FA0120EF
:102DB0000549086000220F210320FFF72AF90320AC
:102DC000FFF71AF910B010BD3C0E47422DE9F04153
:102DD00004460D461646002700BF207F012802D179
:102DE0000220BDE8F0810120207700BF022060773B
:102DF0004EB9687800F01000102804D1687800F00F
:102E0000EF000A30687086B9E87803F087FC0304A5
:102E1000687803F083FC43EA0023A87803F07EFC83
:102E20000343287843EA403711E0687803F06BFCED
:102E30000746A87803F067FC0746E878000469783D
:102E400040EA0120A9780843297840EA413700BFC9
:102E5000CA202168486253202168486200BF20468A
:102E600003F0C6FC60B100BFFF202168486200BFCC
:102E70000420607700BF0020207700BF0120B0E76A
:102E800016483840216848602068C06820F08000FB
:102E90002168C8602068806800F0200080B9204662
:102EA00000F0B8F860B100BFFF202168486200BFA1
:102EB0000420607700BF0020207700BF012090E74A
:102EC00000BFFF202168486200BF0120607700BF7B
:102ED0000020207700BF00BF83E700003FFFFF0016
:102EE0002DE9F04104460D461646002700BF207F1D
:102EF000012802D10220BDE8F0810120207700BF27
:102F000002206077CEB92068806800F0400000B1F0
:102F100002E00020287200BF287803F0FFFB0304C2
:102F2000687803F0FBFB43EA0023A87803F0F6FB84
:102F30000343287A43EA004716E02068806800F0DF
:102F4000400020B1287803F0DEFB074602E00020B5
:102F5000287200BF28780004697840EA0120A97827
:102F60000843297A40EA014700BFCA202168486225
:102F700053202168486200BF204603F039FC60B14D
:102F800000BFFF202168486200BF0420607700BFB7
:102F90000020207700BF0120ADE71D4838402168A0
:102FA00008602068806820F4802021688860D5E966
:102FB0000301084321688968084321688860206804
:102FC000C06820F080002168C8602068806800F038
:102FD000200080B9204600F01DF860B100BFFF203E
:102FE0002168486200BF0420607700BF002020777E
:102FF00000BF01207FE700BFFF202168486200BFBB
:103000000120607700BF0020207700BF00BF72E77B
:103010007F7F7F0070B5044600252068C06820F0DF
:10302000A0002168C860FEF753FB054607E0FEF7E5
:103030004FFB401BB0F57A7F01D9032070BD20689B
:10304000C06800F020000028F1D00020F6E710B59D
:1030500004460CB9012010BD94F8510028B9002095
:1030600084F85000204600F037F8022084F8510020
:103070002068006820F0400021680860D4E9010160
:103080000843E16808432169084361690843218BCB
:1030900001F400710843E1690843216A0843A16A09
:1030A0000843216808600421A06901EA1040616AB0
:1030B0000843216848602168E06A08612068C069A7
:1030C00020F400602168C86100206065012084F858
:1030D00051000020BFE7000010B586B004466449E7
:1030E000206888427ED100BF6248006840F002003C
:1030F000604908600846006800F00200009000BFC8
:1031000000BF00BF0846006840F0010008600846A4
:10311000006800F00100009000BF00BF00BF08463B
:10312000006840F0010008600846006800F00100F7
:10313000009000BF00BF00BF0846006840F00100DB
:1031400008600846006800F00100009000BF00BF62
:1031500000BF0846006840F00100086008460068AB
:1031600000F00100009000BF00BF00BF08460068EB
:1031700040F0040008600846006800F00400009079
:1031800000BF00BF00BF3B481430006840F48050CF
:103190003849143108600846006800F480500090F7
:1031A00000BF00BF02200190012002900390002088
:1031B0000490059001A93048FEF790F90022022101
:1031C0002D48FEF77FFA2020019002200290039004
:1031D000032004900520059001A92848FEF77EF9F8
:1031E000402000E042E00190022002900020039085
:1031F000032004900520059001A92048FEF76EF9F0
:10320000802001900220029000200390032004906F
:103210000520059001A91948FEF760F910200190DA
:10322000012002900390032004900020059001A942
:103230001248FEF753F9012210211048FEF742FA16
:10324000102001900E48029000200390032004906B
:103250000020059001A90B48FEF740F90022032148
:103260000A20FEF7D6FE0A20FEF7C6FE06B010BD05
:1032700000300140303802400004024000000240AB
:1032800000001110000802402DE9F84F04460E46D8
:1032900017461D46DDF828904FF00008C24694F806
:1032A0005180B8F1010F02D0B8F1220F76D10EB1E2
:1032B00007B115B90120BDE8F88F00BF94F85000A0
:1032C000012801D10220F6E7012084F8500000BF58
:1032D00094F85100012802D1322084F851000020D6
:1032E0006065A763A587E5872663A586E586A06454
:1032F000E064A06AB0F5005F0DD100BF20680068EF
:1033000020F40050216808602068006840F40050F4
:103310002168086000BF2068006800F04000402875
:1033200005D02068006840F0400021680860E0682F
:10333000B0F5006F75D1606830B16068B0F5827F1C
:103340000CD1E08E012809D1206B00882168C8606B
:10335000206B801C2063E08E401EE086E08EF0B97A
:10336000A06AB0F5005F05D12068006840F4805085
:10337000216808604B4600220121204603F06CFAC8
:1033800008B1032097E72068C068A16B0880A06B94
:10339000801CA063E08F401EE087C7E01BE131E0A6
:1033A0004B4600220221204603F056FA08B10320C2
:1033B00081E7206B00882168C860206B801C206337
:1033C000E08E401EE086E08E48B9A06AB0F5005F4E
:1033D00005D12068006840F48050216808604B46A1
:1033E00000220121204603F037FA08B1032062E7EA
:1033F0002068C068A16B0880A06B801CA063E08F70
:10340000401EE087E08E0028CADC60680028C4D136
:103410004B4600220121204603F01EFA10B1032082
:1034200049E70AE02068C068A16B0880A06B801C97
:10343000A063E08F401EE08778E0606830B160688C
:10344000B0F5827F0BD1E08E012808D1216B481C9A
:10345000206308782168C860E08E401EE086E08E18
:10346000D0B9A06AB0F5005F05D12068006840F4CB
:103470008050216808604B4600220121204603F05D
:10348000EBF908B1032016E72068C068A16B08704B
:10349000E08F401EE08749E030E04B4600220221E9
:1034A000204603F0D9F908B1032004E7216B481C3A
:1034B000206308782168C860E08E401EE086E08EB8
:1034C00048B9A06AB0F5005F05D12068006840F4F3
:1034D0008050216808604B4600220121204603F0FD
:1034E000BBF908B10320E6E62068C068C1B2A26B50
:1034F000501CA0631170E08F401EE087E08E002812
:10350000CBDC606890B94B4600220121204603F0D5
:10351000A3F908B10320CEE62068C068C1B2A26B4F
:10352000501CA0631170E08F401EE087A06AB0F5C8
:10353000005F12D14B4600220121204603F08CF996
:1035400028B1606D40F0020060650320B3E620689A
:10355000C06880B20090BDF800004B460122802177
:10356000204603F079F928B1606D40F010006065E5
:103570000320A0E6012084F8510020688068C0F391
:10358000001AA06AB0F5005F1FD1BAF1000F1CD07D
:10359000606D40F002006065A06AB0F5005F0DD17B
:1035A00000BF2068006820F400502168086020688F
:1035B000006840F400502168086000BF00BF002090
:1035C00084F8500000BF012075E600BF002084F899
:1035D000500000BF6FE602206DE6704770B50446EC
:1035E0002546681EB0F1807F01D301200FE0681EE0
:1035F0004FF0E02148610F214FF0FF3003F02AF82F
:1036000000204FF0E021886107200861002070BD94
:1036100010B5FFF7E2FF10BD024600BF92F8380078
:10362000012801D102207047012082F8380000BF34
:10363000022082F83900D1E9000318438B6818434F
:10364000CB6818430B6918434B6918438B691843BF
:1036500013685864012082F8390000BF002082F806
:10366000380000BF00BFDEE7024600BF92F8380016
:10367000012801D102207047012082F8380000BFE4
:10368000022082F839001068406820F0700013684A
:103690005860106840680B681843136858601068D9
:1036A000806820F0800013689860106880684B681C
:1036B000184313689860012082F8390000BF002089
:1036C00082F8380000BF00BFD5E710B504460CB93A
:1036D000012010BD94F8390028B9002084F8380082
:1036E000204600F00DF8022084F83900211D2068E2
:1036F00003F0D2F9012084F839000020E9E7000046
:1037000008B5094A016891420DD100BF074909680F
:1037100041F00101054A11601146096801F00101FB
:10372000009100BF00BF08BD0000014044380240C6
:103730002DE9F04104460D46002600BF94F83800FC
:10374000012802D10220BDE8F081012084F8380070
:1037500000BF022084F839002068866826F07706CA
:1037600026F47F4620688660286850283BD00CDC11
:10377000202860D004DC002853D0102865D155E003
:1037800030285DD0402860D141E0602835D07028D5
:103790000DD0B0F5805F03D0B0F5005F55D115E0D6
:1037A0002068806820F00700216888604EE0D5E935
:1037B00002136A68206803F0D5F92068866826F04D
:1037C000770646F07706206886603FE0D5E9021369
:1037D0006A68206803F0C6F92068806840F4804079
:1037E0002168886032E0EA686968206803F09CFA22
:1037F0005021206803F0C2F928E0EA68696820686F
:1038000003F0A7FA6021206803F0B8F91EE0EA6827
:103810006968206803F088FA4021206803F0AEF957
:1038200014E00021206803F0A9F90FE010212068BE
:1038300003F0A4F90AE02021206803F09FF905E0D5
:103840003021206803F09AF900E000BF00BF01209A
:1038500084F8390000BF002084F8380000BF00BFA2
:1038600071E7000010B586B004461249206888420E
:103870000DD1801501900220029000200390049049
:103880000120059001A90C48FDF728FE10E02068F2
:10389000B0F1804F0CD10120019002200290002055
:1038A000039004900120059001A90348FDF716FE3E
:1038B00006B010BD000001400000024070B5044693
:1038C0000D46164600BF94F83800012801D10220A9
:1038D00070BD012084F8380000BF022084F8390050
:1038E00036B1042E1BD0082E31D00C2E5ED145E00F
:1038F0002946206803F04CF92068806940F00800F0
:10390000216888612068806920F00400216888614E
:1039100020688069296908432168886147E0294651
:10392000206803F067F92068806940F4006021682E
:1039300088612068806920F480602168886120683F
:103940008069296940EA0120216888612FE02946C1
:10395000206803F087F92068C06940F008002168FA
:10396000C8612068C06920F004002168C86120682F
:10397000C069296908432168C86118E029462068A0
:1039800003F0A6F92068C06940F400602168C861AE
:103990002068C06920F480602168C8612068C0691F
:1039A000296940EA01202168C86100E000BF00BF2A
:1039B000012084F8390000BF002084F8380000BFDF
:1039C00000BF85E710B504460CB9012010BD94F87E
:1039D000390028B9002084F83800204600F00CF89F
:1039E000022084F83900211D206803F055F80120D9
:1039F00084F839000020E9E708B50168B1F1804F8B
:103A00000DD100BF0649096841F00101044A116067
:103A10001146096801F00101009100BF00BF08BD17
:103A20004038024030B504460D4601222946206840
:103A300003F08AF80A492068884201D1012000E099
:103A4000002028B12068406C40F4004021684864A0
:103A50002068006840F0010021680860002030BD47
:103A60000000014010B504460CB9012010BDA0694A
:103A700000B100E000BF94F8390028B9002084F8B4
:103A80003800204600F026F8022084F8390020682B
:103A9000C06820F400502168C860204603F0A6F9F1
:103AA0002068006920F4904021680861206840691E
:103AB00020F02A00216848612068C06840F4005066
:103AC0002168C8600020E063012084F839000020EC
:103AD000CCE7000010B586B0044600BF204800685F
:103AE00040F001001E4908600846006800F001002F
:103AF000009000BF00BF00BF0846006840F0010012
:103B000008600846006800F00100009000BF00BF98
:103B100000BF13481030006840F4003010491031E5
:103B200008600846006800F40030009000BF00BF45
:103B300004200190022002900120039002200490B2
:103B40000720059001A90748FDF7C8FC082001904F
:103B50000720059001A90348FDF7C0FC06B010BD81
:103B600030380240000002402DE9F04704460D467F
:103B7000164699464FF0000894F83980B8F1010FC5
:103B800002D0B8F1220F65D105B116B90120BDE808
:103B9000F08700BF94F83800012801D10220F6E731
:103BA000012084F8380000BF0020E06394F8390059
:103BB000222803D1322084F8390002E0122084F850
:103BC0003900A684E68428E0E08C401EE084A068EA
:103BD000B0F5805F14D14B4600228021204603F0CF
:103BE00017FA08B10320D2E72F463888C0F308003F
:103BF00021684860206908B9AD1C0EE06D1C0CE01E
:103C00004B4600228021204603F002FA08B103202F
:103C1000BDE715F8010B21684860E08C0028D3DC73
:103C20004B4600224021204603F0F2F908B1032060
:103C3000ADE794F83900322803D1222084F8390006
:103C400002E0012084F8390000BF002084F8380029
:103C500000BF9CE702209AE72DE9F0410546A846FF
:103C600008F1010698F80000042801D0BDE8F081B1
:103C70003078052804D03E280BD0FF2862D11FE001
:103C8000002032490880707905F05EFAFDF74CFBA0
:103C900058E0B71C3878012802D002280ED10CE079
:103CA00005F048FA7C1CB4F8010005F067FDB4F893
:103CB0000110601DFDF737FB00E000BF00BF41E0D1
:103CC000B71C388840F60F42811A904222D009DC96
:103CD000A0F2064068B301282FD0A0F2FB700028A4
:103CE0002ED106E001292AD0032927D0052927D182
:103CF0001AE0BC1C207A002806DD217AE07904F164
:103D0000090205F033FA04E0E079012801D10F49F6
:103D1000088015E0BB1C9A78921ED1B2B3F803005C
:103D20005A1DFDF702FB0BE0BC1C608802F088FD09
:103D300006E007A003F0EAF902E001E000E000BFBE
:103D400000BF00BF00BF00BF90E70000CA00002016
:103D50007363616E6E6564206F6E6520646576695D
:103D600063650A0D0000000010B50B4805F021FF47
:103D70000A4805F01EFF00240BE0C4EBC40000EB72
:103D80008000074A02EB8001034805F01CFF601C1D
:103D9000C4B2052CF1DB10BD2C020020340200203F
:103DA0008005002038B500200090FDF78FFA2EE046
:103DB0001A4805F00FFF10BB6946184805F012FFBE
:103DC0008022009908311648FDF7C8F9C4B2002CCA
:103DD00010DD009880F88840009800F08DF820B938
:103DE0001048009905F0EFFE0FE00C48009905F02F
:103DF000E3FE0AE00948009905F0DEFE05E0012037
:103E000009490870FDF762FA38BDFDF75FFAFDF762
:103E100085F90028CCD100BFF6E700002C02002075
:103E20003C080020340200203C02002030B5A1B044
:103E300000200090FDF755FA194805F0CBFE054625
:103E400013E06946164805F0CDFEFDF75EFA0098CE
:103E50000830FFF701FFFDF744FA1248009905F01A
:103E6000B2FE0F4805F0B6FE0546002DE9D00E481B
:103E7000007888B10AE0802201A90C48FDF76EF9AC
:103E8000C4B2002C02DD01A8FFF7E6FEFDF746F9FB
:103E90000028F0D104490870FDF737FA21B030BD91
:103EA000340200202C0200203C0200203C080020AC
:103EB00010B5024805F08EFE10BD0000340200204F
:103EC000B0B10C490978491D01700A490978091DEA
:103ED000417008490978C91C817006490978891C14
:103EE000C17004490978491C01710249097841717E
:103EF00070470000107AFF1F014601F10802107898
:103F0000042801D001207047937891F88800C01EE2
:103F1000834201D00220F6E70020F4E7FEB500203E
:103F2000009001233222BE21684600F070FA08B1E9
:103F30000120FEBD9DF8004001233522BE216846C8
:103F400000F065FA08B10120F3E79DF8000000F0E9
:103F5000030744EA072000EE100AB8EEC00AF2EEAA
:103F6000000A80EE201A4F4880ED001A0123332208
:103F7000BE21684600F04BFA08B10120D9E79DF850
:103F8000005001233522BE21684600F040FA08B1F6
:103F90000120CEE79DF8000000F00C06B61045EABF
:103FA000062000EE100AB8EEC00AF2EE000A80EE1B
:103FB000201A3D4880ED001A0223BC22BE2168462B
:103FC00000F025FA08B10120B3E79DF800009DF844
:103FD000011000EB012000B2344908800223BE2208
:103FE0001146684600F013FA08B10120A1E79DF8D8
:103FF00000009DF8011000EB012000B22C49088060
:1040000001233022BE2102A800F001FA08B10120EC
:104010008FE701233122BE2101A800F0F8F908B191
:10402000012086E70223B622BE21684600F0EFF9A0
:1040300008B101207DE79DF800009DF8011000EB1C
:10404000012000B21B4908800223BA22BE21684623
:1040500000F0DDF908B101206BE79DF800009DF844
:10406000011000EB012000B2134908809DF8080000
:1040700000EE100AB8EE400AF0EE000A80EE201AB8
:104080000E4880ED001A9DF8040000EE100AB8EE0C
:10409000400AF0EE000A80EE201A094880ED001A6E
:1040A000002046E7380100203C01002040010020AC
:1040B000420100204C0100204E010020440100205C
:1040C0004801002070B52DED088B82B00446002019
:1040D0000190009001232022BE21684600F097F94C
:1040E00020B1012002B0BDEC088B70BD9DF800002E
:1040F00000F0030000909DF8000048BB012321223E
:10410000BE21684600F083F908B10120EAE79DF876
:10411000000020F0010000909DF8000040F0010038
:10412000009001232122BE21684600F07EF908B1EB
:104130000120D7E700BF01232722BE21684600F0F7
:1041400066F908B10120CDE79DF800000028F2D003
:104150000223A822BE2101A800F059F908B10120CC
:10416000C0E79DF804009DF8051000EB012006B2A1
:104170003948B0F90000301A00EE100AB8EEC00A53
:104180003648D0ED000A364890ED001A70EEC10AAC
:1041900060EE200A3348B0F900002F49B1F9001051
:1041A000401A00EE100AB8EEC01A80EE810A2C48C0
:1041B000D0ED000A30EE208A9FED2B1B9FED2C0BDB
:1041C00003F05EF9B0EE40AAF0EE60AA18EE100A15
:1041D000FCF746F941EC1B0B53EC1A2BFCF727F8C4
:1041E00041EC190BFCF723F905B29FED1F1B9FED66
:1041F000200B03F045F9B0EE40AAF0EE60AA00EE05
:10420000105AB8EEC00A10EE100AFCF729F941EC7A
:104210001B0B53EC1A2BFCF77CF841EC190BFCF749
:1042200032F9206094ED000AB5EEC00AF1EE10FA02
:1042300003D29FED110A84ED000A94ED000ADFED30
:104240000F0AB4EEE00AF1EE10FA03DD9FED0B0A5F
:1042500084ED000A002045E74C01002048010020C1
:10426000440100204E01002000000000000000403A
:104270000000000000002440000000000000C842D0
:1042800070B52DED088B82B005460020019000909E
:1042900001232022BE21684600F0B9F820B1012098
:1042A00002B0BDEC088B70BD9DF8000000F003006B
:1042B00000909DF8000048BB01232122BE216846E2
:1042C00000F0A5F808B10120EAE79DF8000020F011
:1042D000010000909DF8000040F0010000900123D3
:1042E0002122BE21684600F0A0F808B10120D7E7DE
:1042F00000BF01232722BE21684600F088F808B1DC
:104300000120CDE79DF800000028F2D00223AA2268
:10431000BE2101A800F07BF808B10120C0E79DF89C
:1043200004009DF8051000EB012006B22D48B0F9FD
:104330000000301A00EE100AB8EEC01A2A48B0F990
:1043400000002849B1F90010401A00EE100AB8EE3A
:10435000C00AC1EE000A254890ED000A244890EDFD
:10436000001A30EE411A90ED000AB0EE408A00EEDD
:10437000818A9FED201B9FED210B03F081F8B0EEA9
:1043800040AAF0EE60AA18EE100AFCF769F841ECBA
:104390001B0B53EC1A2BFBF74AFF41EC190BFCF7F4
:1043A00027F804B29FED131B9FED140B03F068F880
:1043B000B0EE40AAF0EE60AA00EE104AB8EEC00AD5
:1043C00010EE100AFCF74CF841EC1B0B53EC1A2BC7
:1043D000FBF79FFF41EC190BFCF755F82860002014
:1043E0005EE7000040010020420100203C01002067
:1043F0003801002000000000000000400000000024
:1044000000002440704710B500F0AAF810BD2DE957
:10441000F04104460D4616461F463B4632462946A5
:10442000204600F0A5F8BDE8F0812DE9F0410446F2
:104430000D4616461F463B4632462946204600F0AA
:10444000ABF8BDE8F08138B5044600200090FFF7D6
:10445000DAFF08B1012038BD00F042F808B10120B0
:10446000F9E7FFF75BFD08B10120F4E70123202203
:10447000BE216846FFF7CBFF08B10120EBE79DF8AE
:10448000000020F00300009060799DF800100843C0
:10449000009001232022BE216846FFF7C6FF08B125
:1044A0000120D8E7FFF7AEFF0020D4E708B50123CD
:1044B0002022BE216846FFF7AAFF08B1012008BDEF
:1044C0009DF8000020F08000009001232022BE21F2
:1044D0006846FFF7AAFF08B10120F0E70020EEE7E9
:1044E00008B501232022BE216846FFF790FF08B1DE
:1044F000012008BD9DF8000040F0800000900123DD
:104500002022BE216846FFF790FF08B10120F0E7A6
:104510000020EEE710B504460CB9012010BD0123C0
:104520000F22BE212046FFF772FFF7E708B50123EF
:104530002122BE216846FFF76AFF08B1012008BDAD
:104540009DF8000040F08000009001232122BE2150
:104550006846FFF76AFF08B10120F0E70020EEE7A8
:1045600010B500F065F808B1012010BD0020FCE78F
:104570002DE9F04104460D4616461F464FF000084F
:104580003B4632462946204600F0C6F808B14FF0B7
:1045900001084046BDE8F0812DE9F04104460D4692
:1045A00016461F464FF000083B4632462946204635
:1045B00000F0D0F808B14FF001084046BDE8F081A6
:1045C0002DE9FE4304460D4616461F460E48006878
:1045D0000A21B0FBF1F8414601A802F0DEFB0EE033
:1045E000F8B2F3B22A46214600900848FCF70AFECA
:1045F00000B905E001A802F0C2FB00B100E0EFE75E
:1046000000BFBDE8FE830000D0A000083C080020E9
:1046100000BFFEE710B504460448FDF75FF801202F
:10462000FCF79EFE00F004F810BD00009408002086
:1046300010B500240C48FDF76CF898B90B480A49EE
:1046400048600021084881603321C1604FF48041F7
:10465000016107480449086000F00CF80248FDF7C2
:104660005DF80446204610BD94080020801A06001C
:104670000054004000B587B000BF2548006840F0F6
:104680000200234908600846006800F0020001901B
:1046900000BF00BFC02002901220039002200590AE
:1046A000002004900420069002A91A48FCF716FF87
:1046B00000BF17481030006840F400101449103152
:1046C00008600846006800F40010019000BF00BFB9
:1046D0000F481038006840F400100D491039086088
:1046E0000846006820F400100860002211461F20D0
:1046F000FDF78FFC1F20FDF77FFC002211462020D4
:10470000FDF787FC2020FDF777FC07B000BD000017
:1047100030380240000402402DE9FE4304460D46B5
:1047200090461E4600270948006801234246294654
:10473000CDE9004602900648FDF72EFA074617B16C
:104740002846FFF767FF3846BDE8FE834002002099
:10475000940800202DE9FE4304460D4690461E466F
:10476000002709480068012342462946CDE9004652
:1047700002900648FDF72CFB074617B12846FFF7C5
:1047800049FF3846BDE8FE8340020020940800201F
:10479000F8B504460D4616462068006840F480606F
:1047A000216808602068006840F480702168086013
:1047B000334600224FF00111204600F08DF908B178
:1047C0000320F8BD2069B0F5804F05D1E8B240F074
:1047D00001002168086144E005F44070F02141EADD
:1047E000E0102168086132462649204600F0E3F9CE
:1047F00030B1A06B042801D10120E2E70320E0E7FB
:10480000E8B22168086132461E49891F204600F03F
:10481000D2F930B1A06B042801D10120D1E70320E7
:10482000CFE700BF20684069009020688069009051
:1048300000BF00BF2068006840F4807021680860F5
:10484000334600224FF00111204600F045F908B12F
:104850000320B6E705F44070F12141EAE010216839
:10486000086132460749891F204600F0A4F930B19B
:10487000A06B042801D10120A3E70320A1E70020B9
:104880009FE700000800010070B504460D4616467B
:104890002068006840F48070216808603346002278
:1048A0004FF00111204600F017F908B1032070BD48
:1048B0002069B0F5804F04D105F0FE002168086141
:1048C00016E005F44070F02141EAE010216808612B
:1048D00032460F49204600F06EF930B1A06B042833
:1048E00001D10120E3E70320E1E7E8B22168086194
:1048F00032460749891F204600F05DF930B1A06BB0
:10490000042801D10120D2E70320D0E70020CEE720
:10491000080001002DE9F84304460E4615461F46DF
:10492000DDF820802068006840F48060216808601D
:104930002068006840F480702168086043460022C7
:104940004FF00111204600F0C7F810B10320BDE878
:10495000F88306F0FE00216808614246314920468E
:1049600000F029F930B1A06B042801D10120EEE755
:104970000320ECE700BF2068406900902068806950
:10498000009000BF00BF4346002226497E312046EA
:1049900000F0A2F808B10320D9E7012F03D1E8B253
:1049A0002168086110E0C5F30720216808614346CB
:1049B00000221C497E31204600F08EF808B1032009
:1049C000C5E7E8B2216808614346002215497E31F7
:1049D000204600F081F808B10320B8E7206800689D
:1049E00040F4807021680860434600224FF00111B6
:1049F000204600F071F808B10320A8E7F0B240F0BB
:104A000001002168086142460649204600F0D3F8BB
:104A100030B1A06B042801D1012098E7032096E76C
:104A2000002094E7020001002DE9F84304460E46F9
:104A300015461F46DDF820802068006840F480702D
:104A400021680860434600224FF00111204600F023
:104A500043F810B10320BDE8F88306F0FE0021689A
:104A6000086142461B49204600F0A5F830B1A06B12
:104A7000042801D10120EEE70320ECE700BF206805
:104A80004069009020688069009000BF00BF4346E5
:104A9000002210497E31204600F01EF808B10320A4
:104AA000D9E7012F03D1E8B22168086110E0C5F30E
:104AB0000720216808614346002206497E312046CE
:104AC00000F00AF808B10320C5E7E8B221680861E0
:104AD0000020C0E7020001002DE9F04105460C4628
:104AE00017461E464FF00008FCF7F2FD804687BBD4
:104AF00013E0701C88B12EB1FCF7EAFDA0EB0800B2
:104B0000B0420AD9012085F8350000BF002085F8A1
:104B1000340000BF0320BDE8F081C4F30740012842
:104B20000AD128684069A1B20840A1B2884201D1E7
:104B300001200BE0002009E028688069A1B208404C
:104B4000A1B2884201D1012000E000200028D0D08D
:104B50002FE0FFE712E0701C80B12EB1FCF7B8FD2A
:104B6000A0EB0800B04209D9012085F8350000BF4C
:104B7000002085F8340000BF0320CCE7C4F30740D1
:104B800001280AD128684069A1B20840A1B2884230
:104B900001D101200BE0002009E028688069A1B262
:104BA0000840A1B2884201D1012000E00020002885
:104BB000D1D10020AFE72DE9F04104460D4616465D
:104BC0000027FCF785FD07462DE020684069C0F30B
:104BD0008020B0B12068006840F40070216808604F
:104BE0006FF48060216848610420A063012084F88C
:104BF000350000BF002084F8340000BF0120BDE86C
:104C0000F081701C78B126B1FCF762FDC01BB04288
:104C100009D9012084F8350000BF002084F8340051
:104C200000BF0320EBE7C5F3074001280AD1206845
:104C30004069A9B20840A9B2884201D101200BE025
:104C4000002009E020688069A9B20840A9B2884222
:104C500001D1012000E000200028B6D00020CEE7DE
:104C600010B5FFF7E5FC08B1012010BD0020FCE7FE
:104C70002DE9F04104460D4616461F464FF0000848
:104C80003B46324629462046FFF746FD08B14FF025
:104C900001084046BDE8F0812DE9F04104460D468B
:104CA00016461F464FF000083B463246294620462E
:104CB000FFF750FD08B14FF001084046BDE8F08114
:104CC00010B5FCF733FB00216B2001F06BFE0721D0
:104CD000192001F067FE06211A2001F063FE182159
:104CE0001B2001F05FFE01211C2001F05BFE10BDC6
:104CF0008F4890ED001A70EEC11A8E4890ED002A90
:104D00008D4890ED001A01EE821A80ED001A90EDA8
:104D1000001A30EE411A894880ED001A884890ED5B
:104D2000011A8848D0ED001A31EEC11A8448D0ED3E
:104D3000021A31EE611A844880ED001A804890ED25
:104D4000031AB1EE411A804880ED011A7C4890EDBB
:104D5000031AB1EE411A7C4880ED021A7B4890EDAF
:104D6000001A794880ED031A754890ED001A7648CC
:104D7000D0ED001A6F4890ED002A01EE821A7048BB
:104D800080ED001A90ED011A6F48D0ED011A6948C4
:104D900090ED002A01EE821A694880ED011A90ED2B
:104DA000021A6948D0ED021A624890ED002A01EE1D
:104DB000821A634880ED021A90ED031A6248D0ED22
:104DC000031A5C4890ED002A01EE821A5C4880EDDF
:104DD000031AD0ED001A5E48007801EE100AB8EE12
:104DE000411A21EE811A5B4880ED001A5448D0ED3B
:104DF000021A5748007801EE100AB8EE411A21EE67
:104E0000811A554880ED001A544890ED001A504818
:104E1000007801EE900AF8EE611A4E4890ED002AF3
:104E200001EE821A4E4880ED001A4A4890ED001AB1
:104E30004B48D0ED001A81EE212A4A4880ED002A25
:104E4000454890ED001A4648D0ED001A81EE212A1F
:104E5000454880ED002A3F4890ED001A434880ED18
:104E6000001A3748D0ED011A3948007801EE100ACF
:104E7000B8EE411A21EE811A3D4880ED001A304803
:104E800090ED001A3748D0ED001A384890ED002A0E
:104E900001EEC21A2A4880ED001A90ED011A31483D
:104EA000D0ED001A324890ED002A01EEC21A2448D3
:104EB00080ED011A90ED021A2B48D0ED001A2B4814
:104EC00090ED002A01EEC21A1D4880ED021A90ED05
:104ED000031A2548D0ED001A254890ED002A01EE6E
:104EE000C21A174880ED031A134890ED001A1D48A6
:104EF000D0ED001A114890ED002A01EE821A0E48FA
:104F000080ED001A0A4890ED001A1748D0ED001AFB
:104F10000A4890ED002A01EE821A054880ED001A39
:104F200090ED001A30EEC11A124880ED001A704759
:104F30005000002048000020840000205400002081
:104F4000740000203C0000200003002040000020EE
:104F50004C000020580000205C000020440000208D
:104F60006000002064000020680000206C00002029
:104F7000700000208800002038B504460020009012
:104F8000684600F02FF808B1012038BD9DED000AF9
:104F9000B8EEC00ADFED030A80EE201A84ED001A95
:104FA0000020F2E70000804538B50446684600F06E
:104FB0003BF808B1012038BDBDF9000000EE100A31
:104FC000F8EEC00A9FED051A80EE810ADFED040AB3
:104FD00030EE200A84ED000A0020ECE70000F043E8
:104FE00000002A42F8B5064600250323A8220D48F2
:104FF0000178684600F037F808B10120F8BD0024B8
:1050000006E01DF80400E10088400543601CC4B2BE
:10501000032CF6DB05F4000008B145F07F45356050
:105020000020EBE7CC01002038B504460025022320
:10503000AB2209480178684600F015F808B1012054
:1050400038BD9DF800009DF8011000EB012085B2ED
:1050500028B220800020F3E7CC010020704710B573
:1050600001F020FB10BD2DE9F04104460D46164627
:105070001F463B4632462946204601F01BFBBDE851
:10508000F0812DE9F04104460D4616461F463B4689
:1050900032462946204601F021FBBDE8F0810000A0
:1050A00038B5044600200090FFF7D9FF08B1012071
:1050B00038BD00F08BF808B10120F9E70123202268
:1050C000324801786846FFF7CEFF08B10120EFE7CC
:1050D0009DF8000020F07000009020789DF80010EE
:1050E000084300909DF8000020F008000090E07850
:1050F0009DF80010084300909DF8000020F0040087
:10510000009020799DF80010084300909DF8000061
:1051100020F00100009060799DF800100843009095
:1051200001232022194801786846FFF7AAFF08B139
:105130000120BDE701231022144801786846FFF7DB
:1051400092FF08B10120B3E79DF8000020F00300B2
:10515000009060789DF80010084300909DF80000D2
:1051600020F00C000090A0789DF8001008430090FB
:1051700001231022054801786846FFF782FF08B135
:10518000012095E7FFF76AFF002091E7CC0100209E
:1051900008B5012320220C4801786846FFF763FF19
:1051A00008B1012008BD9DF8000020F080000090AB
:1051B00001232022044801786846FFF762FF08B106
:1051C0000120EFE70020EDE7CC01002008B5012326
:1051D00020220C4801786846FFF745FF08B10120FE
:1051E00008BD9DF8000040F08000009001232022BF
:1051F000044801786846FFF744FF08B10120EFE753
:105200000020EDE7CC01002010B504460CB90120C8
:1052100010BD01230F22034801782046FFF723FF2A
:10522000F6E70000CC01002008B5012321220C483C
:1052300001786846FFF717FF08B1012008BD9DF807
:10524000000040F0800000900123212204480178F2
:105250006846FFF716FF08B10120EFE70020EDE7F1
:10526000CC01002008B9B82100E0BA21014A117030
:1052700070470000CC01002038B5044600200090A3
:10528000684600F02FF808B1012038BD9DED000AF6
:10529000B8EEC00ADFED030A80EE201A84ED001A92
:1052A0000020F2E70000804538B50446684600F06B
:1052B0003BF808B1012038BDBDF9000000EE100A2E
:1052C000F8EEC00A9FED051A80EE810ADFED040AB0
:1052D00030EE200A84ED000A0020ECE70000F043E5
:1052E00000002A42F8B5064600250323A8220D48EF
:1052F0000178684600F037F808B10120F8BD0024B5
:1053000006E01DF80400E10088400543601CC4B2BB
:10531000032CF6DB05F4000008B145F07F4535604D
:105320000020EBE78C01002038B50446002502235D
:10533000AB2209480178684600F015F808B1012051
:1053400038BD9DF800009DF8011000EB012085B2EA
:1053500028B220800020F3E78C010020704710B5B0
:1053600001F0A0F910BD2DE9F04104460D461646A6
:105370001F463B4632462946204601F09BF9BDE8D0
:10538000F0812DE9F04104460D4616461F463B4686
:1053900032462946204601F0A1F9BDE8F08100001F
:1053A00038B5044600200090FFF7D9FF08B101206E
:1053B00038BD00F08BF808B10120F9E70123202265
:1053C000324801786846FFF7CEFF08B10120EFE7C9
:1053D0009DF8000020F07000009020789DF80010EB
:1053E000084300909DF8000020F008000090E0784D
:1053F0009DF80010084300909DF8000020F0040084
:10540000009020799DF80010084300909DF800005E
:1054100020F00100009060799DF800100843009092
:1054200001232022194801786846FFF7AAFF08B136
:105430000120BDE701231022144801786846FFF7D8
:1054400092FF08B10120B3E79DF8000020F00300AF
:10545000009060789DF80010084300909DF80000CF
:1054600020F00C000090A0789DF8001008430090F8
:1054700001231022054801786846FFF782FF08B132
:10548000012095E7FFF76AFF002091E78C010020DB
:1054900008B5012320220C4801786846FFF763FF16
:1054A00008B1012008BD9DF8000020F080000090A8
:1054B00001232022044801786846FFF762FF08B103
:1054C0000120EFE70020EDE78C01002008B5012363
:1054D00020220C4801786846FFF745FF08B10120FB
:1054E00008BD9DF8000040F08000009001232022BC
:1054F000044801786846FFF744FF08B10120EFE750
:105500000020EDE78C01002010B504460CB9012005
:1055100010BD01230F22034801782046FFF723FF27
:10552000F6E700008C01002008B5012321220C4879
:1055300001786846FFF717FF08B1012008BD9DF804
:10554000000040F0800000900123212204480178EF
:105550006846FFF716FF08B10120EFE70020EDE7EE
:105560008C0100205C21014A117070478C010020E1
:1055700010B5044621464F2000F009F808B101207B
:1055800010BD20782070207820700020F8E770B5DA
:1055900004460D46012322463C212846FFF7BCF86D
:1055A00070BD38B5044669466020FFF7F0FF08B1CA
:1055B000012038BD9DF8000020F0030000909DF808
:1055C0000000204300909DF80010602000F021F8BA
:1055D00008B10120EDE70020EBE738B50446694645
:1055E0006020FFF7D4FF08B1012038BD9DF800000E
:1055F00020F00C0000909DF80000204300909DF8E2
:105600000010602000F005F808B10120EDE700204F
:10561000EBE713B50446012322463C2101A8FFF71E
:1056200099F81CBD08B50020009001231222D62154
:10563000684600F016FC08B1012008BD9DF8000086
:1056400020F0040000909DF8000040F0040000905D
:1056500001231222D621684600F011FC08B1012076
:10566000EBE701230A22D621684600F0FAFB08B1D5
:105670000120E2E79DF8000020F0780000909DF8FE
:10568000000000909DF8000020F0070000909DF8B9
:105690000000009001230A22D621684600F0EFFBAB
:1056A00008B10120C9E70020C7E708B50020009035
:1056B00001235E22D621684600F0D3FB08B1012009
:1056C00008BD9DF8000020F0100000909DF800003B
:1056D000009001235E22D621684600F0D0FB08B17D
:1056E0000120EDE701235D22D621684600F0B9FBD9
:1056F00008B10120E4E79DF8000020F0F8000090D8
:105700009DF8000000909DF8000020F00700009038
:105710009DF80000009001235D22D621684600F02C
:10572000AEFB08B10120CBE70020C9E708B5002097
:10573000009001231022D621684600F092FB08B1A8
:10574000012008BD9DF8000020F0F00000909DF8B9
:10575000000040F0600000909DF8000020F00C0078
:1057600000909DF80000009001231022D621684689
:1057700000F085FB08B10120E3E701235C22D6217C
:10578000684600F06EFB08B10120DAE79DF80000E2
:1057900020F0800000909DF8000000909DF800002F
:1057A00020F0600000909DF8000000909DF800003F
:1057B00020F0100000909DF8000000909DF800007F
:1057C00020F00F0000909DF80000009001235C2263
:1057D000D621684600F053FB08B10120B1E7012350
:1057E0005D22D621684600F03CFB08B10120A8E705
:1057F0009DF8000020F0F80000909DF8000040F0B7
:10580000300000909DF8000020F0070000909DF807
:10581000000040F00300009001235D22D62168467D
:1058200000F02DFB08B101208BE701235E22D62179
:10583000684600F016FB08B1012082E79DF80000E1
:1058400020F0100000909DF8000040F01000009043
:1058500001235E22D621684600F011FB08B1012029
:105860006FE700206DE700003EB504469FED1D0A7E
:105870008DED000A01A800F037F808B101203EBD07
:10588000684600F06BF808B10120F8E7BDF90400A4
:1058900000EE100AB8EEC00ADDED000A20EE200A84
:1058A000BDEEC00A84ED000ABDF9060000EE100A44
:1058B000B8EEC00ADDED000A20EE200ABDEEC00AF7
:1058C00084ED010ABDF9080000EE100AB8EEC00A26
:1058D000DDED000A20EE200ABDEEC00A84ED020ACA
:1058E0000020CCE70000000038B5044600200090FE
:1058F00002232222D621684600F0B3FA08B1012023
:1059000038BD9DF800009DF8011000EB012000B2A9
:10591000208002232422D621684600F0A2FA08B192
:105920000120EDE79DF800009DF8011000EB01203B
:1059300000B2608002232622D621684600F091FA48
:1059400008B10120DCE79DF800009DF8011000EB94
:10595000012000B2A0800020D2E7000038B5044644
:105960000020009001231122D621684600F079FA28
:1059700008B1012038BD9DF8000000F00200009041
:105980009DF80000022804D19FED1A0A84ED000A58
:105990002DE001231122D621684600F062FA08B1F9
:1059A0000120E7E79DF8000000F00C0000909DF852
:1059B000000030B1042809D008280CD00C2814D1DC
:1059C0000EE09FED0D0A84ED000A0FE09FED0B0A3B
:1059D00084ED000A0AE09FED0A0A84ED000A05E062
:1059E0009FED080A84ED000A00E000BF00BF002020
:1059F000C0E7000000008C4000000C4100008C411A
:105A000000000C4200008C4238B504460020009093
:105A100001231122D621684600F023FA08B10120A3
:105A200038BD9DF8000000F0020000909DF80000D5
:105A3000022804D19FED1A0A84ED000A2DE001230B
:105A40001122D621684600F00CFA08B10120E7E7E0
:105A50009DF8000000F00C0000909DF8000030B1AF
:105A6000042809D008280CD00C2814D10EE09FED92
:105A70000D0A84ED000A0FE09FED0B0A84ED000A89
:105A80000AE09FED0A0A84ED000A05E09FED080A8E
:105A900084ED000A00E000BF00BF0020C0E7000066
:105AA0000000FA42000075430000FA4300007A4407
:105AB0000000FA4438B5044600200090012311226A
:105AC000D621684600F0CDF908B1012038BD9DF817
:105AD000000000F0F00000909DF8000000F00F01C1
